{
  "contractName": "IdentityManagement",
  "abi": [
    {
      "anonymous": false,
      "inputs": [
        {
          "indexed": true,
          "internalType": "address",
          "name": "userAddress",
          "type": "address"
        },
        {
          "indexed": false,
          "internalType": "string",
          "name": "name",
          "type": "string"
        },
        {
          "indexed": false,
          "internalType": "uint256",
          "name": "age",
          "type": "uint256"
        },
        {
          "indexed": false,
          "internalType": "string",
          "name": "aadharNumber",
          "type": "string"
        },
        {
          "indexed": false,
          "internalType": "string",
          "name": "homeAddress",
          "type": "string"
        }
      ],
      "name": "IdentityStored",
      "type": "event"
    },
    {
      "inputs": [
        {
          "internalType": "string",
          "name": "",
          "type": "string"
        }
      ],
      "name": "aadharToUserAddress",
      "outputs": [
        {
          "internalType": "address",
          "name": "",
          "type": "address"
        }
      ],
      "stateMutability": "view",
      "type": "function",
      "constant": true
    },
    {
      "inputs": [
        {
          "internalType": "address",
          "name": "",
          "type": "address"
        }
      ],
      "name": "users",
      "outputs": [
        {
          "internalType": "string",
          "name": "name",
          "type": "string"
        },
        {
          "internalType": "uint256",
          "name": "age",
          "type": "uint256"
        },
        {
          "internalType": "string",
          "name": "aadharNumber",
          "type": "string"
        },
        {
          "internalType": "string",
          "name": "homeAddress",
          "type": "string"
        },
        {
          "internalType": "bytes32",
          "name": "passcodeHash",
          "type": "bytes32"
        },
        {
          "internalType": "bool",
          "name": "isRegistered",
          "type": "bool"
        }
      ],
      "stateMutability": "view",
      "type": "function",
      "constant": true
    },
    {
      "inputs": [
        {
          "internalType": "string",
          "name": "name",
          "type": "string"
        },
        {
          "internalType": "uint256",
          "name": "age",
          "type": "uint256"
        },
        {
          "internalType": "string",
          "name": "aadharNumber",
          "type": "string"
        },
        {
          "internalType": "string",
          "name": "homeAddress",
          "type": "string"
        },
        {
          "internalType": "string",
          "name": "passcode",
          "type": "string"
        }
      ],
      "name": "storeIdentity",
      "outputs": [],
      "stateMutability": "nonpayable",
      "type": "function"
    },
    {
      "inputs": [
        {
          "internalType": "string",
          "name": "passcode",
          "type": "string"
        }
      ],
      "name": "retrieveIdentity",
      "outputs": [
        {
          "internalType": "string",
          "name": "",
          "type": "string"
        },
        {
          "internalType": "uint256",
          "name": "",
          "type": "uint256"
        },
        {
          "internalType": "string",
          "name": "",
          "type": "string"
        },
        {
          "internalType": "string",
          "name": "",
          "type": "string"
        }
      ],
      "stateMutability": "view",
      "type": "function",
      "constant": true
    }
  ],
  "bytecode": "0x608060405234801561001057600080fd5b50610bbc806100206000396000f3fe608060405234801561001057600080fd5b506004361061004c5760003560e01c806305b55aa314610051578063522c8cb31461007d578063a87430ba14610092578063f58a5832146100b7575b600080fd5b61006461005f366004610880565b6100d7565b60405161007494939291906109c9565b60405180910390f35b61009061008b3660046108bb565b61038d565b005b6100a56100a0366004610852565b610542565b60405161007496959493929190610a13565b6100ca6100c5366004610880565b610712565b60405161007491906109b5565b33600090815260208190526040812060050154606091908290819060ff1661011a5760405162461bcd60e51b815260040161011190610a6d565b60405180910390fd5b60008560405160200161012d9190610999565b60408051601f1981840301815291815281516020928301203360009081529283905291206004015490915081146101765760405162461bcd60e51b815260040161011190610adb565b33600090815260208190526040808220815160c0810190925280548290829061019e90610b35565b80601f01602080910402602001604051908101604052809291908181526020018280546101ca90610b35565b80156102175780601f106101ec57610100808354040283529160200191610217565b820191906000526020600020905b8154815290600101906020018083116101fa57829003601f168201915b505050505081526020016001820154815260200160028201805461023a90610b35565b80601f016020809104026020016040519081016040528092919081815260200182805461026690610b35565b80156102b35780601f10610288576101008083540402835291602001916102b3565b820191906000526020600020905b81548152906001019060200180831161029657829003601f168201915b505050505081526020016003820180546102cc90610b35565b80601f01602080910402602001604051908101604052809291908181526020018280546102f890610b35565b80156103455780601f1061031a57610100808354040283529160200191610345565b820191906000526020600020905b81548152906001019060200180831161032857829003601f168201915b5050509183525050600482015460208083019190915260059092015460ff16151560409182015282519183015190830151606090930151919a90995091975095509350505050565b60006001600160a01b03166001846040516103a89190610999565b908152604051908190036020019020546001600160a01b0316146103de5760405162461bcd60e51b815260040161011190610a9a565b6000816040516020016103f19190610999565b60408051601f19818403018152828252805160209182012060c0840183528984528382018990528383018890526060840187905260808401819052600160a0850152336000908152808352929092208351805193955090926104569284920190610738565b506020828101516001830155604083015180516104799260028501920190610738565b5060608201518051610495916003840191602090910190610738565b506080820151600482015560a0909101516005909101805460ff191691151591909117905560405133906001906104cd908790610999565b90815260405190819003602001812080546001600160a01b03939093166001600160a01b03199093169290921790915533907fc925a5a1459833dab174ba836ea40f6e512d37abf6e9296d7569c8fbfb988159906105329089908990899089906109c9565b60405180910390a2505050505050565b60006020819052908152604090208054819061055d90610b35565b80601f016020809104026020016040519081016040528092919081815260200182805461058990610b35565b80156105d65780601f106105ab576101008083540402835291602001916105d6565b820191906000526020600020905b8154815290600101906020018083116105b957829003601f168201915b5050505050908060010154908060020180546105f190610b35565b80601f016020809104026020016040519081016040528092919081815260200182805461061d90610b35565b801561066a5780601f1061063f5761010080835404028352916020019161066a565b820191906000526020600020905b81548152906001019060200180831161064d57829003601f168201915b50505050509080600301805461067f90610b35565b80601f01602080910402602001604051908101604052809291908181526020018280546106ab90610b35565b80156106f85780601f106106cd576101008083540402835291602001916106f8565b820191906000526020600020905b8154815290600101906020018083116106db57829003601f168201915b50505050600483015460059093015491929160ff16905086565b80516020818301810180516001825292820191909301209152546001600160a01b031681565b82805461074490610b35565b90600052602060002090601f01602090048101928261076657600085556107ac565b82601f1061077f57805160ff19168380011785556107ac565b828001600101855582156107ac579182015b828111156107ac578251825591602001919060010190610791565b506107b89291506107bc565b5090565b5b808211156107b857600081556001016107bd565b600082601f8301126107e1578081fd5b813567ffffffffffffffff808211156107fc576107fc610b70565b604051601f8301601f19168101602001828111828210171561082057610820610b70565b604052828152848301602001861015610837578384fd5b82602086016020830137918201602001929092529392505050565b600060208284031215610863578081fd5b81356001600160a01b0381168114610879578182fd5b9392505050565b600060208284031215610891578081fd5b813567ffffffffffffffff8111156108a7578182fd5b6108b3848285016107d1565b949350505050565b600080600080600060a086880312156108d2578081fd5b853567ffffffffffffffff808211156108e9578283fd5b6108f589838a016107d1565b9650602088013595506040880135915080821115610911578283fd5b61091d89838a016107d1565b94506060880135915080821115610932578283fd5b61093e89838a016107d1565b93506080880135915080821115610953578283fd5b50610960888289016107d1565b9150509295509295909350565b60008151808452610985816020860160208601610b05565b601f01601f19169290920160200192915050565b600082516109ab818460208701610b05565b9190910192915050565b6001600160a01b0391909116815260200190565b6000608082526109dc608083018761096d565b85602084015282810360408401526109f4818661096d565b90508281036060840152610a08818561096d565b979650505050505050565b600060c08252610a2660c083018961096d565b8760208401528281036040840152610a3e818861096d565b90508281036060840152610a52818761096d565b6080840195909552505090151560a090910152949350505050565b602080825260139082015272155cd95c881b9bdd081c9959da5cdd195c9959606a1b604082015260600190565b60208082526021908201527f41616468616172206e756d62657220616c7265616479207265676973746572656040820152601960fa1b606082015260800190565b60208082526010908201526f496e76616c69642070617373636f646560801b604082015260600190565b60005b83811015610b20578181015183820152602001610b08565b83811115610b2f576000848401525b50505050565b600281046001821680610b4957607f821691505b60208210811415610b6a57634e487b7160e01b600052602260045260246000fd5b50919050565b634e487b7160e01b600052604160045260246000fdfea264697066735822122012c797507502500ec7ee5b92439482759a257b19c72b7f5d668a5ae3f6de75bb64736f6c63430008000033",
  "immutableReferences": {},
  "source": "// SPDX-License-Identifier: MIT\r\npragma solidity ^0.8.0;\r\n\r\ncontract IdentityManagement {\r\n    // Define a User struct to hold user information\r\n    struct User {\r\n        string name;\r\n        uint age;\r\n        string aadharNumber;\r\n        string homeAddress; // Residential address of the user\r\n        bytes32 passcodeHash; // Hashed passcode for protection\r\n        bool isRegistered;\r\n    }\r\n\r\n    // Mapping from user addresses to User structs\r\n    mapping(address => User) public users;\r\n    // Mapping from Aadhaar number to user address\r\n    mapping(string => address) public aadharToUserAddress;\r\n\r\n    // Event emitted when identity information is stored\r\n    event IdentityStored(address indexed userAddress, string name, uint age, string aadharNumber, string homeAddress);\r\n\r\n    // Function to store identity information\r\n    function storeIdentity(string memory name, uint age, string memory aadharNumber, string memory homeAddress, string memory passcode) public {\r\n        // Check if the Aadhaar number is already associated with a user\r\n        require(aadharToUserAddress[aadharNumber] == address(0), \"Aadhaar number already registered\");\r\n\r\n        // Hash the passcode\r\n        bytes32 passcodeHash = keccak256(abi.encodePacked(passcode));\r\n\r\n        // Store the identity information in the contract\r\n        users[msg.sender] = User(name, age, aadharNumber, homeAddress, passcodeHash, true);\r\n        // Associate the Aadhaar number with the user address\r\n        aadharToUserAddress[aadharNumber] = msg.sender;\r\n\r\n        // Emit the event for storing identity information\r\n        emit IdentityStored(msg.sender, name, age, aadharNumber, homeAddress);\r\n    }\r\n\r\n    // Function to retrieve identity information with a passcode\r\n    function retrieveIdentity(string memory passcode) public view returns (string memory, uint, string memory, string memory) {\r\n        // Ensure the user is registered\r\n        require(users[msg.sender].isRegistered, \"User not registered\");\r\n\r\n        // Hash the provided passcode\r\n        bytes32 passcodeHash = keccak256(abi.encodePacked(passcode));\r\n\r\n        // Verify the passcode\r\n        require(users[msg.sender].passcodeHash == passcodeHash, \"Invalid passcode\");\r\n\r\n        // Retrieve the user's identity information\r\n        User memory user = users[msg.sender];\r\n        return (user.name, user.age, user.aadharNumber, user.homeAddress);\r\n    }\r\n}\r\n",
  "sourcePath": "C:\\Users\\Ninja\\Desktop\\blockchain\\contracts\\UserIdentity.sol",
  "compiler": {
    "name": "solc",
    "version": "0.8.0+commit.c7dfd78e.Emscripten.clang"
  },
  "schemaVersion": "3.4.16",
  "updatedAt": "2024-04-17T10:16:00.888Z",
  "networkType": "ethereum",
  "devdoc": {
    "kind": "dev",
    "methods": {},
    "version": 1
  },
  "userdoc": {
    "kind": "user",
    "methods": {},
    "version": 1
  }
}